:020000040800F2
:1000000018090020C5010008CD010008CF01000833
:10001000D1010008D3010008D5010008000000004C
:10002000000000000000000000000000D7010008F0
:10003000D901000800000000DB010008A52200082B
:10004000DF010008DF010008DF010008DF01000810
:10005000DF010008DF010008DF010008DF01000800
:10006000DF010008DF010008DF010008DF010008F0
:10007000DF010008DF010008DF010008DF010008E0
:10008000DF010008DF010008DF010008DF010008D0
:10009000DF010008DF010008DF010008DF010008C0
:1000A000DF010008DF010008DF010008DF010008B0
:1000B000DF010008DF01000800000000DF01000888
:1000C000DF0100080000000000000000DF01000860
:1000D00000000000BD250008DF010008000000004E
:1000E000DF010008DF010008DF01000800F002F86E
:1000F00000F058F80AA090E8000C82448344AAF16A
:100100000107DA4501D100F04DF8AFF2090EBAE867
:100110000F0013F0010F18BFFB1A43F0010318473B
:100120000C2F00002C2F0000103A24BF78C878C193
:10013000FAD8520724BF30C830C144BF04680C60ED
:10014000704700000023002400250026103A28BF35
:1001500078C1FBD8520728BF30C148BF0B60704739
:10016000662902F0F386642900F0A880782900F05F
:100170000C81632900F07A84002070471FB59DE848
:10018000030001F007F800F08FFC040000200021BC
:1001900002F070FCE06000F087FD1FBD10B500F0BC
:1001A000ECFD10BD00F054FE1146FFF7E7FF02F032
:1001B000E9FB00F059FF03B4FFF7F0FF03BC01F0C7
:1001C0007BF900000948804709480047FEE7FEE741
:1001D000FEE7FEE7FEE7FEE7FEE7FEE7FEE7FEE7F7
:1001E00004480549054A064B70470000A124000851
:1001F000ED00000818030020180900201805002051
:10020000180500200FB4044910B503AA029800F0A5
:1002100039FC10BC5DF814FB1002002070B50446D8
:1002200085690068C10601D5302600E02026C00798
:1002300007D070BDD4E9012130469047206A401CA8
:1002400020626D1EF6D570BD70B5044685690078D4
:10025000C00707D170BDD4E9012120209047206A52
:10026000401C20626D1EF6D570BD70B50C4605466B
:10027000012A05D02878800600D5EA69002302E02B
:10028000012305E05B1C934202D2E05C0028F9D117
:10029000A869E618C01AA861286A18442862284686
:1002A000FFF7BCFF04E0D5E9012114F8010B9047EA
:1002B000B442F8D32846FFF7C7FF70BD2DE9F041DF
:1002C0000646002410687529314616A510D0AFF3F4
:1002D0000080002802DA404213A507E031688A074F
:1002E00001D512A502E0490704D511A5012401E0BA
:1002F000AFF3008000210A2206F1240709E0B0FBD9
:10030000F2FCB0FBF2F302FB1C00303078541846CC
:10031000491C0028F3D123462A463046BDE8F04167
:1003200000F019B9000000002D0000002B000000B3
:1003300020000000F0B40D460188090502D5214CCB
:100340007C4402E01F4C7C440E34002100F1240662
:1003500008E002F00F071209E75D42EA03721B0989
:100360007754491C52EA0307F3D10278002312079D
:1003700004D5702D06D009B1022311342246F0BCF9
:1003800000F0E9B801231034F8E770B504460D46D3
:1003900021461068AFF30080024629462046BDE89A
:1003A00070400023C6E7D21D22F00703D3E90023E3
:1003B000C0E70368126843F0200303600823C361A9
:1003C0000023B7E70C2C00002DE9F05F89460446B6
:1003D0004FF0000ADFF874B1FB44C0F820A02046BB
:1003E000E1688847002874D0252806D0D4E9012187
:1003F0009047206A401C2062F1E700265F462046B5
:10040000E16888472028054607DB312D05D2781999
:1004100010F8200C08B10643F1E7B00701D526F02B
:100420000406C4F81CA00027C4F818A02A2D09D07F
:10043000284602F08CFA38B304EB8708303DC8F840
:10044000185019E059F8041B204604EB870291610B
:10045000E1688847012F054618D1E069002820DAB5
:1004600026F020061DE0D8F8180000EB800005EB10
:1004700040003038C8F818002046E1688847054633
:1004800002F065FA0028EED1012F0AD02E2D08D1F6
:100490002046E16888477F1C0546022F46F020066B
:1004A000C4DBA069002803DA404246F00106A061DF
:1004B000F00701D026F010066C2D0BD0682D09D066
:1004C0004C2D39D06A2D35D0742D35D07A2D33D0BE
:1004D00016E038E0E1682F4620468847B8420546D6
:1004E00009D16C2F26D04FF48060E1680643204686
:1004F0008847054604E06C2F1AD04FF480700643FD
:100500000DB3A5F14100192802D8203546F4006644
:100510004A462946204626604E46FFF721FE80B116
:1005200001280BD0F61D26F0070000F1080956E758
:100530004020E4E78020D8E70020D6E706F1040950
:100540004DE7284652E7206ABDE8F09F9C2B00004B
:100550007047704770472DE9F0470D46994692461F
:10056000044600F124080168880604D5E06921F0FA
:100570001001216000E00120A84201DD471B00E0DE
:100580000027A1697A1902EB0900081AA0612078F6
:10059000C00602D42046FFF741FE002608E0D4E959
:1005A00001211AF806009047206A401C761C206240
:1005B0004E45F4DB2078C0060AD52046FFF72EFE14
:1005C00006E0D4E9012130209047206A401C2062D7
:1005D000381EA7F10107F4DC07E0D4E9012118F87F
:1005E00005009047206A401C2062281EA5F10105E5
:1005F000F3DC2046FFF728FE2078000602D5022013
:10060000BDE8F0870120FBE770472DE9FF4F0C465E
:100610001E464FF0FF378BB0D2E90001DDF8608055
:100620000A908A46C1F30A5505B93D46002108469D
:100630004FF00000BAF1000F00F4400005DA00EBC3
:1006400080004FF4400101EA50004FEA9059B9F19F
:10065000010F00DDB9460A9850EA4A000ED044F670
:100660001050A5F2FF3545432F14B8F1000F1ED0EE
:100670007542291E1EDDC9F100021CE0B8F1010F10
:100680004FF0000001D0302103E0F24305E0215497
:10069000401CB042FBDB30460022002121540B9964
:1006A000C1F80880C1E900200FB0BDE8F08FBD1B84
:1006B0006D1CDEE74A4600DA694206A800F07EFAC1
:1006C00006AB93E8070003AB83E8070050460A999E
:1006D00000F08EFF8DE80700A0F500501F38009055
:1006E0000398002D0ADD42F21F014A460844002308
:1006F00003A90390684601F0F7F909E0A0F500505E
:100700004A461F38002303A90390684601F001FA06
:100710008DE807000004000C03D04FF0FF304108C3
:1007200000E01046B8F1000F03D0002200921546F9
:100730001EE0751E05D400F0BBF9303262556D1E07
:10074000F9D5B3460122084302D000227F1C04E001
:100750002078302801D100227F1E002A099784D0FA
:100760001DE0112D07DA00F0A3F9303262556D1C3F
:1007700050EA0102F5D1084302D00098C8B10EE05A
:100780000021681E05E0235C625C63542254401E15
:10079000491C8142F7DBAB46A81B401E0990002094
:1007A00004F80B000B98099AC0F80880C0E9002BE8
:1007B0007AE711264FF0000857E72DE9F04F8846F9
:1007C0000446D21D22F0070191B0D1E90001CDE924
:1007D0000A0102F0A8F802460B98C00F01D02D20A4
:1007E00007E02068810701D52B2002E0202101EAE3
:1007F000C000032A099001D0072A05DB03464146C1
:10080000204600F09BF90BE12078800601D5E069D5
:1008100000E00620B8F1650F814606D0B8F1660FFA
:1008200018D0B8F1670F70D131E00020B9F1110F85
:10083000009001DB112301E009F101030AAA01A9DB
:100840000CA8FFF7E2FEDDE90C70002609F10105B6
:10085000834647E001204B4600904FF000470AAA2C
:1008600001A90CA8FFF7D1FEDDE90DB00C995D469A
:10087000002610B909F101000D18B9EB050003D4E9
:10088000C0F1FF3609F10105A5EB09002BE0B9F134
:10089000010F01DA4FF001090020B9F1110F0090AA
:1008A000484601DD112300E003460AAA01A90CA86D
:1008B000FFF7ABFEDDE90C704D460026834620783D
:1008C00000070AD4AB4500DA5D4601A8012D04DD1E
:1008D000411911F8011C302907D04F4502DA17F1F0
:1008E000040F04DA012082460FE06D1EEEE7002FB0
:1008F00002DCED1B3E4403E0781CA84200DD7D1CB9
:10090000B81B00F1010A4FF000472078000703D41C
:10091000AA4501DB4FF0FF3A0021B7F1004F0DF17E
:1009200043088DF8431024D002202B23002F01DA36
:100930007F422D230A21021EA0F1010000DC5FB1DD
:1009400097FBF1FC97FBF1F201FB1C7C17460CF1C5
:10095000300C08F801CDEEE7A8F101000370218802
:10096000090501D5452100E06521A0F1010800F845
:10097000011C09980FA9A1EB0807FF1D00B1012078
:10098000411901EBEA70A1693844081A401EA061C0
:100990002078C00602D42046FFF740FC099828B111
:1009A000D4E901219047206A401C20622078C006CB
:1009B00022D52046FFF732FC1EE0002E04DBB345B3
:1009C00002DD01A8805D00E03020D4E901219047DC
:1009D000206A401C2062761CAAF101005FEA000A2E
:1009E0000AD100F061F8C0680168405CD4E90121D7
:1009F0009047206A401C2062281EA5F10105DCDC1E
:100A000007E0D4E9012118F8010B9047206A401C47
:100A10002062381EA7F10107F3DC2046FFF714FC23
:100A2000032011B041E6000001694A1C0261087808
:100A3000704700B58FB0CDE901310021059105491E
:100A40007944CDE9031011466846FFF7BDFC0FB0AD
:100A500000BD0000E5FFFFFF10B5436913B1AFF320
:100A6000008001E0FFF701FC012010BD127800F1C9
:100A700024010A7000224A700122EDE711684FF04C
:100A8000FF32E9E7074B70B50D467B44FFF7D1FF16
:100A90000446284600F004F910B14FF0FF3070BD55
:100AA000204670BDD31E000000487047D8020020C9
:100AB00030B5B0F10A024FEA900E71F100034EEA30
:100AC000817EB0EB0E0061EB91014FEA101E4EEA01
:100AD000017E10EB0E0041EB11114FEA102E4EEA91
:100AE000016E10EB0E0041EB11214FEA104E4EEA61
:100AF000014E10EB0E0041EB1141401841F1000195
:100B00004FEAD00040EA41704FEAD10110EB800576
:100B10004FEA810444EA907444EB01046D1944EBFC
:100B20000404521BA3414FF0000348BF0A3200D512
:100B300030BD401C41F1000130BD00002DE9F04105
:100B40001F46044603260168072A01F4006004DBFF
:100B500008B116A505E016A503E008B115A500E04B
:100B600015A521F010002060A069C01EA0610FB182
:100B7000401EA0612046FFF751FB4FB1D4E901218F
:100B800038469047206A401C2062C01C206206E064
:100B9000206AFAE7D4E9012115F8010B9047761E87
:100BA000F8D22046FFF750FBBDE8F0814E414E00E1
:100BB0006E616E00494E4600696E66002DE9F04791
:100BC000814616468AB0354878440DC88DE80D0038
:100BD00032487844801C03AC0DC884E80D0041F60F
:100BE0009B300844372190FBF1F290FBF1F5A5F121
:100BF000800501FB12041B3C02D56442012000E089
:100C00000020DFF898A080460027FA44AAF1BE0A27
:100C10000EE0E0070AD03246684607EB47010123A1
:100C20000AEB810100F075FF8DE8070064107F1C5E
:100C3000002CEED1194F7F44AE3F19E0E80715D0E4
:100C400007EB04100DF1180A90E80E008AE80E0078
:100C5000C068F04201D1981908903246012306A9D4
:100C600003A800F056FF03AB83E807006D10641C77
:100C7000002DE3D14FF0010332466946B8F1000F71
:100C800003A802D000F030FF01E000F042FFC9E904
:100C90000001C9F808200AB0BDE8F0873C24000034
:100CA000007B00F08000704710B54248542100F0EE
:100CB000EBF94148542100F0E7F94048542100F095
:100CC000E3F93F493B483C4A3F4B08603D490A60D5
:100CD0003A491960531C0365481C106501200865DA
:100CE0003B48344A39A1784400F022F920B9384809
:100CF00078440A3800F0C1F937482F4A35A17844C2
:100D000000F016F920B9344878440A3800F0B5F9F3
:100D100032482A4A2FA1784400F00AF920B92F4816
:100D200078440A3800F0A9F940232248DC00002169
:100D3000224600F0D9F820B125487844543800F014
:100D40009CF91D4822464023002100F0CDF820B137
:100D500021487844543800F090F91848224610236E
:100D6000002100F0C1F8002806D01C487844BDE8F6
:100D70001040563800F081B910BD104870B5006DB4
:100D800020F001040B4800F049F90B4800F046F947
:100D90000A4800F043F909E0206D20F001052046E3
:100DA00000F03CF9204600F078F82C46002CF3D1F6
:100DB00070BD0000BC010020100200206402002071
:100DC0005C00002060000020640000207200000031
:100DD0003623000077000000222300000E230000CD
:100DE0000EB5CDE9000100F047FB029069460120F5
:100DF000ABBE0EBD08B5694600900220ABBE08BD73
:100E00001FB58DE8070069460520ABBE04B010BDD4
:100E10001FB58DE80F0069460620ABBEF6E708B5A2
:100E2000694600900920ABBE08BD1CB5CDE90001A4
:100E300069460A20ABBE1CBD704708B569460090E4
:100E40000C20ABBE08BD000000487047B80200206F
:100E50007546FFF7F9FFAE4605006946534620F098
:100E60000700854618B020B5FFF7BAF9BDE8204065
:100E70004FF000064FF000074FF000084FF0000B56
:100E800021F00701AC46ACE8C009ACE8C009ACE809
:100E9000C009ACE8C0098D46704770B50446051F0F
:100EA00000F05CF90068002C14BF446870BD002C91
:100EB00018BFAC423CBF20466468F8D301680A18EA
:100EC000AA4218BF456003D12A6805461144016053
:100ED00028684119A1421CBF6C6070BD61686960DF
:100EE00021680844286070BD70B5C468A50713D098
:100EF000650211D4B2F5807F09D0B2F5007F06D02B
:100F0000B2F5806F08D1012300F1240106E05D1ED7
:100F10006FF07F46B54201D3012070BD0161C3610E
:100F2000416024F470611143C160002070BD000075
:100F30002DE9F0410C4607461646104600F06EF8C3
:100F40002078611C61280AD0722802D077283CD111
:100F500002E00125002405E00225042402E0082423
:100F600048F2020511F8010B2B2806D0622809D09F
:100F700011F8010C74280AD00BE045F0030544F089
:100F80000204EFE745F0040544F00104EAE744F009
:100F9000100438462146FFF723FF411C15D00021DD
:100FA000316171604FF40071F560F161706120078B
:100FB00004D530460222002100F04AF9306D40F09D
:100FC000010030653046BDE8F0810020FBE72DE9E7
:100FD000F0410D460646104C206DC10704D0410873
:100FE00004D020F00104F7E722460EE0542000F080
:100FF00000F907000ED0206D47F00101084354218D
:101000002065384600F040F83A4629463046BDE8AB
:10101000F0418DE70020D6E7BC0100202DE9F04724
:1010200004464FF000094FF0FF37C568D4E9048645
:10103000A80707D0204600F0BBF93046FFF7DAFEDC
:10104000002802DA3846BDE8F087280502D5404678
:10105000FFF723FF4C21204600F016F8206D20F00A
:10106000010020654846EEE710B50446AFF3008066
:101070002046BDE81040FFF79EB810B500F0E2F939
:10108000BDE8104000F0D8B94FF0000200B513469B
:1010900094469646203922BFA0E80C50A0E80C5098
:1010A000B1F12001BFF4F7AF090728BFA0E80C5049
:1010B00048BF0CC05DF804EB890028BF40F8042B42
:1010C00008BF704748BF20F8022B11F0804F18BFAF
:1010D00000F8012B704700004FF0013C50F8042B42
:1010E00051F8043B9A4221D1A2EB0C03934313EA3B
:1010F000CC1317D150F8042B51F8043B9A4215D168
:10110000A2EB0C03934313EACC130BD150F8042B3E
:1011100051F8043B9A4209D1A2EB0C03934313EA22
:10112000CC13DBD04FF00000704700BFD01A01BADB
:10113000B1FA81F101F0180122FA01F0CB40C1F1BE
:101140002001DBB2C0B2C01A2CFA01F3D11A9143CC
:1011500011EAC311E6D1704770470000004870479C
:10116000C0020020704770477047704738B504468A
:101170000A4600206946AFF30080002808BF38BD4A
:1011800002460099204600F0A4F9012038BD012054
:1011900000F0F3B9F8B5AFF30080054600200C4627
:1011A000102000BF0646A819A0420DD93246694654
:1011B0000020AFF30080070008BF00F0DEF90098C0
:1011C000A04218BF0546C419FFF7C8FF05600746CF
:1011D000F01D20F007004619284600F073F9B442CC
:1011E00008BFF8BDA21B31463868BDE8F84000F0E2
:1011F00070B970B50646FFF7B1FF056806F10B0040
:1012000020F00704B4429CBF002070BD2B466A68E2
:10121000BAB11068A04210D304F1080188423CBF63
:101220005068586007D35168101941601168091B54
:10123000016058601460101D70BD13465268002A8A
:10124000E7D121462846FFF791FF0028DED170BD87
:101250002DE9F041044616460D464769007B80079C
:101260002ED03846FFF7DBFD50BB3EB3012E02D037
:10127000022E25D104E0204600F045F905441DE08A
:101280003846FFF7DAFDE168002841F01001E1601F
:1012900005DA204600F058F80120BDE8F081C903C6
:1012A0000BD56268E16A914200D81146A2691144E7
:1012B0002269891A814200DD08460544002D01DAC1
:1012C0000220EAE7E16A6068E268814206D291039F
:1012D000E06203D522F4003141F01002A669002734
:1012E000AE4213DCE16A814201D90B4600E00346BD
:1012F00003EB060C2369ACEB030CAC4506DD814225
:1013000001D98C4600E084469C4505D1A760276042
:1013100042F02000A5620DE0AD1BE669AE1B8142E4
:10132000A66000D90846C01A281A206058196060C3
:1013300022F0200003490840E060002084F8487053
:10134000ABE70000BFCFD7FFC16821F4001141F027
:101350008001C16000218160016070472DE9F04784
:10136000814614460E464FF0FF383248D56857691B
:10137000054209D03846A169FFF757FD002811DB67
:101380002C48C0430540E5602B4632464946384666
:10139000FFF736FDA16920F00042B21A114400287F
:1013A000A16103D02046FFF7CFFF4046BDE8F0879C
:1013B00070B504460569C06A6168884200D808466D
:1013C000E16821F42011E160C90312D5A84208D0D8
:1013D0002246411B2846FFF7C1FF10B14FF0FF30F6
:1013E00070BD0020E562C4E90150E06820F480305F
:1013F000E060002070BD10B50446C06820F02000F9
:10140000E060A16AA06988420DD02046FFF7D0FFB6
:10141000E06820F4405040F01000E060A06AA06155
:101420002069E062606044F24001E0688843E06067
:1014300010BD000010000200002801D000F03CB8F0
:101440007047000010B5014602A000F07DF80120B1
:1014500010BD000053494752545245443A2052654A
:101460006469726563743A2063616E2774206F70DB
:10147000656E3A200000000010B5431C02E010F831
:10148000011B71B18107FAD14FF0013202C88C1AE9
:101490008C4314EAC211F9D0C01A0A0603D0C01E48
:1014A00010BDC01A10BD0A0401D0801E10BD090273
:1014B000FCD0401E10BD000001491820ABBEFEE765
:1014C0002600020000210160C0E9011070471020D1
:1014D0007047034640688C46002818BF88423CBFCE
:1014E00003464068F8D318681844884207D00CF1C6
:1014F000030020F00700001D411A521A0146081D82
:101500000A60FFF7CABC10B50146C268900703D055
:10151000900607D5886A0AE000F03EF801210160D4
:10152000881E10BD8B69486818440B69C01A91F871
:1015300048301BB191F84910401A10BD1103FCD579
:101540000028FADD401E10BD70B505460C460A2085
:1015500000E06D1C00F018F835B128780028F8D1AB
:1015600002E0641C00F010F814B120780028F8D1D3
:10157000BDE870400A2000F007B810B500F010F880
:10158000BDE81040FFF758BF08B569468DF8000068
:101590000320ABBE08BD000000487047B802002021
:1015A00010B5012805D0002103A0FFF7CDFF0120D1
:1015B00010BD09A1F8E7000053494752544D454D6D
:1015C0003A204F7574206F662068656170206D65E4
:1015D0006D6F7279000000003A2048656170206DDF
:1015E000656D6F727920636F7272757074656400D7
:1015F0005FEA400C08BF91F0000F4FEA8C234FEADE
:10160000C12243EA51514FEA1C5018BF00F5F04087
:101610004FEA300018BF41F000415FEA6C5C00F017
:101620002980BCF1FF3F08BF40F080407047130C99
:1016300006BF12044FF0100C4FF0000C130E04BF45
:1016400012020CF1080C130F04BF12010CF1040C70
:10165000930F04BF92000CF1020CD30F04BF520091
:101660000CF1010C11464FF00002A0F11F00A0EB9D
:101670000C00704711F0004F08BF704731F0004177
:101680003FF4D5AF0B0C06BF09044FF0100C4FF020
:10169000000C0B0E04BF09020CF1080C0B0F04BF69
:1016A00009010CF1040C8B0F04BF89000CF1020C32
:1016B000CB0F04BF49000CF1010CCCF12003A0EBCF
:1016C0000C0022FA03F302FA0CF241EA030100F1E2
:1016D0000100704720F07F4C80EA030023F07F4731
:1016E000ACEB070303F57C5300F0004003F1FF036C
:1016F0002DE980494FEA154B09B44FEA144325EA16
:101700000B4E24EA03480FF2042606EB1327490880
:101710003E785FEA320203FB0667C7F5000707FB66
:1017200006F64FEA54374FEAD64606F1020607FBA3
:10173000066CCCF1005C4FEA1C472CEA074C07FB17
:1017400006F40CFB06F504EB15464FEA961634BF7B
:1017500000204FF000404FEAD13706FB07FC4FEA6C
:101760001C4C0CFB0BF7D21B03FB0CF761EB0701C6
:101770000CFB0EF7B0EB074072EB17420CFB08F7BF
:1017800034BFA2EB0742B2EB074261EB17414FEACD
:101790000C444FEA910706FB07FC4FEA1C4C0CFB7C
:1017A0000BF7B0EBC74072EB573203FB0CF734BFBB
:1017B000A2EBC742B2EBC74261EB57310CFB0EF70D
:1017C000B0EBC70072EB57720CFB08F734BFA2EB0B
:1017D000C702B2EBC70261EB5771039F4FEA816109
:1017E00041EA921104EBCC044FEAD1374FEA82620E
:1017F00006FB07FC42EA90124FEA80604FEA1C4C5D
:101800000CFB0BF7D21B03FB0CF761EB07010CFB86
:101810000EF7B0EB074072EB17420CFB08F734BF32
:10182000A2EB0742B2EB074261EB17414FEA8C553E
:101830004FEA910704EB9C2406FB07FC4FEA1C4C83
:101840000CFB0BF7B0EBC74072EB573203FB0CF706
:1018500034BFA2EBC742B2EBC74261EB57310CFB7E
:101860000EF7B0EBC70072EB57720CFB08F734BFF2
:10187000A2EBC702B2EBC70261EB577115EB4C2527
:101880004FEA816141EA92114FEA82624FEAD13711
:1018900042EA901206FB07FC44F100044FEA806024
:1018A0004FEA1C4C0CFB0BF7D21B03FB0CF761EB54
:1018B00007010CFB0EF7B0EB074072EB17420CFB75
:1018C00008F734BFA2EB0742B2EB074261EB1741C6
:1018D00015EB1C154FEA813141EA92414FEA823201
:1018E00042EA90424FEA80304FEA0C7644F100041D
:1018F00048EA03434EEA0B484FF0000EB2EB080CE7
:1019000071EB030724BF624639464EEB0E0E4FF0D3
:10191000000B0018524149414BEB0B0BB2EB080C8A
:1019200071EB03077BF1000B24BF624639464EEB97
:101930000E0E4FF0000B0018524149414BEB0B0BC0
:10194000B2EB080C71EB03077BF1000B24BF62467E
:1019500039464EEB0E0E51EA020718BF46F001065B
:1019600016EB0E7655F1000254F1000103D5BDE8E7
:101970008901BDE80088BDE88901BDE80048B619C5
:10198000524141EB0101A3F10103704780807F7E4A
:101990007D7C7B7A797877767675747372717170E5
:1019A0006F6E6E6D6C6C6B6A6A6968686766666597
:1019B0006464636362616160605F5F5E5E5D5D5C25
:1019C0005C5B5B5A5A595958585757565655555596
:1019D0005454535352525251515050504F4F4F4EF6
:1019E0004E4D4D4D4C4C4C4B4B4B4A4A4A49494944
:1019F0004848484747474746464645454544444486
:101A0000444343434342424242414141002B9C46AE
:101A100030D477002BD01CB54FEA370703B44FF012
:101A200010004FF01001BAF1000F06D0BCF1000F0A
:101A3000DCBF40F0080040F008014FF000000FBC90
:101A4000BDE810400BF1010BBBF1010F08BF5FEACD
:101A5000170722BF12F1010211F101014FF00041FD
:101A600043F1000300F0004043EA00007047F9D35F
:101A70005708D0E746EA064613F1400F4FEA1646EC
:101A80001FDD13F1200FDFBF16430A46002120336C
:101A90005B42BED0C3F1200746EA064602FA07F7CA
:101AA0004FEA164646EA0706C3F1200722FA03F278
:101AB00001FA07F721FA03F14FF0000342EA0702A7
:101AC000A7E746EA020646EA06464FEA164646EA0F
:101AD0000106BCBF46EA0646360C4FF000034FF045
:101AE00000024FF0000194E72DE9804C9A4693469E
:101AF00070B491E8380007C831EA400C48BF34EAB6
:101B0000430C03D5FFF7E6FDFFF780FFF0BCBDE80F
:101B1000008C2DE9804C9A46934670B491E83800C9
:101B200007C810F0804F08BF13F0804F03D100F0BA
:101B300005F8FFF76BFFF0BCBDE8008C20F07F4795
:101B400080EA030023F07F4C07EB0C03A3F57C53E2
:101B500000F00040A3F1FE0392F0000F00F0B3800C
:101B600095F0000F00F077802DE901494FEA114010
:101B70004FEA144621EA004800FB06FC24EA064727
:101B800008FB06F607FB08F800FB07F718EB06480A
:101B90004CEB164C4FEA124B18EB07484FEA154630
:101BA0004CEB174022EA0B4E0BFB06FC25EA0647DE
:101BB0000EFB06F607FB0EFE0BFB07F71EEB064EB1
:101BC0004CEB164C4FF000061EEB074E4CEB174B40
:101BD00018EB0B0840F1000018EB0E0B58EB000857
:101BE00040F100008F1A4FF000013CBFC943661B53
:101BF00014BFB5EB040C00213CBFC943F61B4FEAF0
:101C000017444EEA8E0E27EA04454FEA1C4704FBB0
:101C100007622CEA074C05FB07F70CFB05F604FBF3
:101C20000CFC16EB074642EB174216EB0C4642EB58
:101C30001C421BEB060658EB0202414146EA9E0697
:101C400001D5BDE80189B619524141EB0101A3F16B
:101C50000103BDE801894FEA14454FEA114724EA20
:101C6000054621EA074C05FB07F406FB07F70CFBCA
:101C700006F105FB0CFC11EB074144EB17444FEA5E
:101C8000124711EB0C4144EB1C4422EA074C05FBC4
:101C900007F206FB07F70CFB06F605FB0CFC16EB40
:101CA000074642EB174216EB0C4642EB1C456A18FE
:101CB00054F1000148BF7047B619524141EB010190
:101CC000A3F10103704795F0000F37D04FEA11429E
:101CD0004FEA144721EA024624EA074C02FB07F1C7
:101CE00006FB07F70CFB06F402FB0CFC14EB0744A5
:101CF00041EB17414FEA154714EB0C4441EB1C41F3
:101D000025EA074C02FB07F506FB07F70CFB06F676
:101D100002FB0CFC16EB074645EB174516EB0C4691
:101D200045EB1C42121951F1000148BF7047B6192A
:101D3000524141EB0101A3F1010370474FEA144501
:101D40004FEA114724EA054621EA074C05FB07F153
:101D500006FB07F70CFB06F24FF0000605FB0CFC38
:101D600012EB074241EB174112EB0C4251EB1C41C5
:101D700048BF7047921841EB0101A3F1010370477E
:101D800010B504464FF40061024800F0FCF8024828
:101D9000846110BD000801408400002010B50121BD
:101DA000042000F091F94FF40060074908800320F7
:101DB00088701020C870054800F058F84FF4006192
:101DC000024800F0DEF810BD1800002000080140B5
:101DD00010B50121052000F077F904201A49C870D8
:101DE00008200880194800F041F818201649C870EA
:101DF0000420088003208870144800F037F801217F
:101E0000480400F051F90021114800F0A3FC1148EA
:101E100000F07DFD4FF4E1300E490860002088801D
:101E2000C880088188810C204881094800F0FAFCAC
:101E3000012240F22551064800F0CFFC0121044860
:101E400000F088FC10BD00001800002000080140D0
:101E500000440040680000200349486100BF024977
:101E600049690029FBD17047840000202DE9F04129
:101E7000024600250026002000230024002791F8B8
:101E800003C00CF00F0591F803C00CF0100CBCF16E
:101E9000000F03D091F802C04CEA050591F800C08C
:101EA000BCF1000F31D0146800202BE04FF0010C82
:101EB0000CFA00F3B1F800C00CEA03069E4220D1F0
:101EC00083004FF00F0C0CFA03F7BC4305FA03FC38
:101ED0004CEA040491F803C0BCF1280F06D14FF07E
:101EE000010C0CFA00FCC2F814C00AE091F803C01F
:101EF000BCF1480F05D14FF0010C0CFA00FCC2F800
:101F000010C0401C0828D1D31460B1F800C0BCF147
:101F1000FF0F34DD546800202EE000F1080C4FF074
:101F2000010808FA0CF3B1F800C00CEA03069E425F
:101F300021D183004FF00F0C0CFA03F7BC4305FAD4
:101F400003FC4CEA040491F803C0BCF1280F05D14E
:101F500000F1080C08FA0CF8C2F8148091F803C0DC
:101F6000BCF1480F07D100F1080C4FF0010808FA46
:101F70000CF8C2F81080401C0828CED35460BDE88D
:101F8000F0814161704701617047000010B5012187
:101F9000082000F099F803200A4908808870102072
:101FA000C8700948FFF762FF0121042000F08CF897
:101FB000C020044908800420C8700448FFF756FF79
:101FC00010BD000018000020000C01400008014076
:101FD00010B54FF4407000F05DF8FF201049087014
:101FE0000020487088700120C870084600F01AF878
:101FF00025200B4908700F20487088700120C87098
:10200000084600F00FF82620054908701020487097
:1020100088700120C870084600F004F810BD000068
:102020001400002070B5002100230F22C47804B3EF
:10203000154C246804F4E064C4F5E064210AC1F19D
:102040000403CA40447804FA03F18478144021431D
:1020500009010E4C0678A155047804F01F050124EF
:10206000AC4005786D11AD0005F1E025C5F80041E3
:1020700009E0047804F01F050124AC40044D067803
:10208000761145F8264070BD0CED00E000E400E05C
:1020900080E100E002490143024A116070470000FC
:1020A0000000FA050CED00E029B1064AD2690243AE
:1020B000044BDA6104E0034AD2698243014BDA61DE
:1020C000704700000010024029B1064A926902439D
:1020D000044B9A6104E0034A92698243014B9A617E
:1020E000704700000010024030B50021002200249B
:1020F00000232D4D6D6805F00C0121B1042905D098
:10210000082923D105E0294D056022E0274D05600F
:102110001FE0254D6D6805F47012234D6D6805F4C0
:102120008034022505EB92421CB9214D55430560D0
:102130000BE01D4D6D6805F400351DB11C4D554378
:10214000056002E0194D5543056002E0174D05603A
:1021500000BF00BF144D6D6805F0F0010909154D71
:102160006B5C0568DD4045600F4D6D6805F4E0610E
:10217000090A104D6B5C4568DD4085600A4D6D684D
:1021800005F46051C90A0B4D6B5C4568DD40C560C4
:10219000054D6D6805F44041890B074D6B5CC568C2
:1021A000B5FBF3F5056130BD0010024000127A0066
:1021B00000093D00480000205800002010B500F044
:1021C00001F810BD0CB50020019000903348006864
:1021D00040F480303149086000BF3048006800F4A6
:1021E000003000900198401C0190009818B90198A7
:1021F000B0F5A06FF1D12948006800F4003010B1AB
:102200000120009001E0002000900098012843D1B7
:102210002348006840F01000214908600846006823
:1022200020F0030008600846006840F002000860E3
:102230001A4840681949486008464068486008469E
:10224000406840F4806048600846406820F47C1094
:1022500048600846406840F4E81048600846006856
:1022600040F08070086000BF0C48006800F000700B
:102270000028F9D00948406820F003000749486069
:102280000846406840F00200486000BF03484068CC
:1022900000F00C000828F9D10CBD0000001002402D
:1022A000002002402DE9F0414FF4FA64C8251426BD
:1022B00002274C480068401C4A49086008460068EC
:1022C000B0F5FA6F01D3002008604648007800F0AE
:1022D000010048B90120444908710846406918B115
:1022E00008464069401E48613E4800681421B0FB22
:1022F000F1F201FB120010BB01203B49C8700846F7
:10230000006918B108460069401E086136488069B6
:1023100028B135488069401E3349886104E04FF494
:1023200000613248FFF72DFE2F48006A38B130486F
:10233000006828B12E480068401E2D4908600AE058
:102340000A202B4908602848006A401E2649086276
:102350000520FFF715FD23480068C821B0FBF1F206
:1023600001FB120048B901201F4988700846C06867
:1023700018B10846C068401EC8601A4800684FF48B
:10238000FA61B0FBF1F201FB120018BB0120164903
:1023900048700846806818B108468068401E88600A
:1023A0001148C06938B11048C069401E0E49C86163
:1023B0003C20FFF7E5FC0C48806A401C0A49886213
:1023C000084690F8280000F0010020B101210948DA
:1023D000FFF7D9FD03E001210648FFF7D4FDBDE872
:1023E000F08100002C000020840000200008014043
:1023F00030000020000C014070B51E4800684FF40A
:10240000FA62B0FBF2F1B1F1807F00D31DE021F060
:102410007F40401E4FF0E022506150170F220028ED
:1024200007DA13071D0E144B00F00F04241F1D556F
:1024300003E013071C0E114B1C5400BF00204FF08B
:10244000E02290610720106100BF01212020FFF7EA
:102450002BFE4FF6FF700A49888047200880002035
:10246000C8804880074800F057F80121054800F06F
:1024700047F870BD0000002018ED00E000E400E027
:10248000780000200014004010B5FFF7A1FDFFF711
:10249000B3FFFFF79DFCFFF781FCFFF777FD10BD51
:1024A00010B51348006840F0010011490860084663
:1024B0004068104908400E494860084600680E49C7
:1024C00008400B4908600846006820F48020086036
:1024D0000846406820F4FE0048604FF41F00886002
:1024E000FFF76CFE4FF000600449086010BD00006B
:1024F000001002400000FFF8FFFFF6FE08ED00E0CC
:1025000021B1028842F00102028004E002884FF605
:10251000FE731A4002807047002202881D4B9842C9
:102520000ED01D4B98420BD0B0F1804F08D01B4B02
:10253000984205D01A4B984202D01A4B984204D1C7
:102540004FF68F731A404B881A43174B984207D0A7
:10255000164B984204D04FF6FF431A40CB881A43DB
:1025600002808B8883850B8803850A4B98420BD0A9
:10257000094B984208D00E4B984205D00D4B98421B
:1025800002D00D4B984201D10B7A0386012383823E
:1025900070470000002C014000340140000400405E
:1025A00000080040000C00400010004000140040F3
:1025B00000400140004401400048014010B540F295
:1025C00025514A4800F0DFF800287AD0474800F04B
:1025D00095F9C4B23E2C58D008DC2C2C18D02E2CE7
:1025E0002DD02F2C38D03C2C73D140E03F2C5AD02A
:1025F000602C02D0702C6CD165E03D4890F824002E
:1026000008B9012000E00020394981F8240065E084
:10261000384800680A2190FBF1F036490860084606
:102620000068012805DA08460068002801DB01205F
:1026300008603048016830A0FDF7E4FD4EE02D4809
:10264000006800EB800040002A49086008460168E5
:1026500029A0FDF7D7FD41E0264800684042254902
:1026600008600846016824A0FDF7CCFD36E0002292
:10267000244B254903C900F013FA234A03C2224818
:102680000CC822A0FDF7BEFD28E000221D4B1E490C
:1026900003C900F05DFB1C4A03C21B480CC81BA009
:1026A000FDF7B0FD1AE000221D4B174903C900F0E9
:1026B0004FFB154A03C214480CC814A0FDF7A2FD35
:1026C0000CE00DE005E00A48416B16A0FDF79AFD0D
:1026D00004E0214619A0FDF795FD00BF00BF00BF33
:1026E00040F22771014800F04EF810BD0044004050
:1026F000840000203800002020556E69743A20259F
:10270000640D0A00000024404000002020466C6F49
:10271000617420556E69743A20256C660D0A0000BC
:102720000000F0BF204572726F7220436F64653AFB
:10273000203078253038580D0A000000204D69738C
:1027400073696E6720436F6D6D616E643A20256317
:102750000D0A000021B1828942F40052828104E016
:1027600082894DF6FF731A4082817047024600202D
:10277000B1F5007F00D100BF13880B400BB10120E1
:1027800000E00020704770B50246002400230025B9
:10279000002040F66A16B14200D100BFC1F34215D5
:1027A00001F01F03012606FA03F3012D02D19689D9
:1027B000334006E0022D02D1168A334001E0968AAA
:1027C00033400C12012606FA04F41688344013B183
:1027D0000CB1012000E0002070BDF0B503460024DC
:1027E00000260025002040F66A17B94200D100BF3C
:1027F0001846C1F3421401F01F06012707FA06F537
:10280000012C01D10C3004E0022C01D1103000E089
:1028100014301AB107682F43076002E00768AF431E
:102820000760F0BD2DE9F04786B005460E4600244E
:10283000A24600BFA1460027B08900B100BF2F46C5
:102840002C8A4CF6FF700440F08804432C82AC893B
:102850004EF6F3100440B08831890843718908436B
:102860000443AC81AC8A4FF6FF400440B089044376
:10287000AC8201A8FFF738FC1F48874202D1DDF87F
:1028800010A001E0DDF80CA0A88900F4004040B1E0
:102890000AEBCA0000EB0A1031684900B0FBF1F8FE
:1028A00007E00AEBCA0000EB0A1031688900B0FBB0
:1028B000F1F86420B8FBF0F004012009642101FB69
:1028C0001089A88900F4004040B1322000EBC90013
:1028D000B0FBF1F000F00700044308E0322000EB09
:1028E00009106421B0FBF1F000F00F0004432C81CB
:1028F00006B0BDE8F0870000003801400146888836
:10290000C0F308007047C1F30802828070474FF49B
:102910001651016000218180C18001810C2141811B
:10292000002181817047490050EAC12018BF04206E
:102930004A0D18BF40F0010040F2FF72B2EB515F48
:1029400008BF40F00200012808BF0520704730385A
:102950000A2801D201207047002070477047704755
:1029600070B504460D4600BF80210548FFF7FEFE06
:102970000028F9D0E1B20248FFF7C5FF204670BD3C
:1029800000440040FFF780FD19484288018819A0E3
:10299000FDF738FC16480389C288818822A0FDF71C
:1029A00031FC4FF4FA70FFF757FA1FE02448007922
:1029B00020B100202249087100F044F82048C07876
:1029C00020B100201E49C870FFF7C8FF1C4880785E
:1029D00020B100201A498870FFF7C1FF18484078DD
:1029E00020B100201649487000F02EF8DEE7000004
:1029F0001C0000202A2A2A2A2A20426561642D749C
:102A00007970652053616D706C652050726570201F
:102A10005265762E20253033642E25303264202AEC
:102A20002A2A2A2A0D0A00003E3E20253034642E30
:102A300020253032642E20253032642E200D0A00ED
:102A4000840000207047000010B5084890F8280066
:102A500000F0010020B902210548FFF794FA03E0D5
:102A600002210348FFF78FFA10BD00008400002008
:102A7000000C014010B500290AD00878002807D0C2
:102A800005487844FEF728FB002801D0002010BD3F
:102A90000248784410BD0000CA050000C2050000CD
:102AA0002DE9C04130B4DFF8A0C23CEA111418BFD0
:102AB0003CEA131400F0EC8081EA03051CEA1114CF
:102AC00044EAD57418BF1CEA131500F0C780A4EBC4
:102AD00005044FF0004545EAC12145EAC32341EA18
:102AE000505143EA525304F17F74994204F5003483
:102AF0004FEAC0204FEAC22208BF904200F09C80FB
:102B00004FEA13650FF24016765D4FEA134506FB58
:102B100005F7C7F1807706FB07F74FEAD737A7FB22
:102B200003687642C8F58038A7FB06CE38BFA8F107
:102B3000010807FB08E64FF0000EA6FB028CE6FB3F
:102B400003CEDCF1000CCEF1004E38BFAEF1010E29
:102B5000A6FB0C584FF000074FF00005E6FB0E8770
:102B6000A1FB08C6A0FB07CE16EB0E0645F100053B
:102B7000E1FB076515F1E04E7EBFA4F580345FEA06
:102B800046066D4116F1800745F100054FEA17270B
:102B90004FEA066647EA0567A6F1DE46B6F1805FB2
:102BA0004FEA15251FD9384624F0010C05EBC471F6
:102BB000BCF1FE6F01EB0C1102D8F0BCBDE8008146
:102BC00024425CBF01F5801E9EEAC47F02D4F0BCA3
:102BD000BDE80081244238D4F0BCA1F1C041BDE879
:102BE000004100F0ADB94FEAD22242EA43524FEA27
:102BF000D323A7FB02864FEAD02040EA415007FBCF
:102C000003661EEA0E0F4FEAD12105FB026658BF8C
:102C1000A6EB0056B6EB00564FEA520E4EEAC37EC4
:102C200018EB0E0E56EB530EBDD518EB02085E41A5
:102C30007F1C55F10005B6E74FF480154FF00007F3
:102C40004FF000064FF00008ADE7F0BC4FF0000079
:102C500001F1C04101F00041BDE8008111EA0C1F03
:102C60000CEA131500D00CE013EA0C1F00F02580CD
:102C70004FF00000F0BC81EA030101F00041BDE823
:102C80000081F0BCBDE8004181EA030100F058B9C1
:102C9000F0BCBDE8004170B500F004F9097EFC3ECF
:102CA00000F007B881EA03014FF0000001F0004195
:102CB000704781EA030100F043B9F0BCBDE8004170
:102CC0004FF0000021497047FFFDFBF9F7F5F4F2E2
:102CD000F0EEEDEBE9E8E6E4E3E1E0DEDDDBDAD8B7
:102CE000D7D5D4D3D1D0CFCDCCCBCAC8C7C6C5C415
:102CF000C2C1C0BFBEBDBCBBBAB9B8B7B6B5B4B32C
:102D0000B2B1B0AFAEADACABAAA9A8A8A7A6A5A416
:102D1000A3A3A2A1A09F9F9E9D9C9C9B9A999998DA
:102D20009797969595949393929191908F8F8E8E7D
:102D30008D8C8C8B8B8A898988888787868585840A
:102D400084838382828181800000FF070000F87FF6
:102D5000DFF848C170B51CEA111E1EBF1CEA13152E
:102D60009EEA0C0F95EA0C0F00F06F8081EA0304D5
:102D700023EA4C134EEAD47E21EA4C1141F480112F
:102D800043F48013AE44A1FB024CA0FB0365AEF1FB
:102D90007F7E361955EB0C05A1FB034C4CF100036B
:102DA000A0FB021C16EB0C06654153F1000309421F
:102DB00018BF46F0010613F4007F0BD14FEA033130
:102DC0004FEA0530340341EA155140EA16506FF0DE
:102DD00003020AE04FEAC3214FEAC520F40241EAA8
:102DE000555140EA56506FF0020202EB2E4201EBC1
:102DF000025585EACE710AD05FEA440C18BF24F070
:102E0000004450F1000041F1000120EAD47040F28A
:102E1000FE7C624500D270BDA84214BF4FF08044D2
:102E20004FF04044002E08BF0024BEF1806FA8BFC1
:102E3000A1F1C041BDE8704080F282804FF00000F7
:102E400001F1C04101F0004170479EEA0C0F0CEA0D
:102E5000131518BF95EA0C0F06D04FF0000081EA59
:102E6000030E0EF0004170BD00F01CF88900013E19
:102E700000F007B800F009B84FEA430C5FEA5C5C69
:102E800008D081EA030100F05BB84FEA410C5FEA29
:102E90005C5CF6D14FF00000014970470000FF076D
:102EA0000000F87F0EF1020E2EF0030E5EF8046BA8
:102EB000364205D4012A43EB030515F5001F12D84D
:102EC000012841EB010C1CF5001F0CD80ED14FEA74
:102ED000D17C15F5001F0CEB4C0C0CF1020C08BF5B
:102EE0004CEBD37C04E04FF0080C01E04FEAD37CBC
:102EF0000CEB4C0526FA05F606F00706B6F1040CB5
:102F000006D20EEB860CBDE870404CF0010C604719
:102F1000DFE80CF0090B02024FF000414FF0000017
:102F2000A1F5002170BD19461046012851EB01049E
:102F300018BFD4F5001484BF002001F0004170BD1B
:102F40000808A0F500114FEA31017047FDF735BCC4
:102F500030313233343536373839414243444546CF
:102F600040305800303132333435363738396162C9
:102F700063646566403078000400000800000000CB
:102F800000000002000100001000000002400000EC
:102F9000000000A00000000005400000000000C884
:102FA000000000000C4000000000409C00000000F9
:102FB000194000000020BCBE0000000034400000AA
:102FC000BFC91B8E00000004B5400000504BCFD09D
:102FD0006607E2CF010000006C4100003E8251AA6A
:102FE000DFEEA73401000000D9420000DCB5A0E20A
:102FF0003A301F97FFFFFFFFB4450000FD25A0C832
:10300000E9A3C14FFFFFFFFFFF3F0000000000806A
:1030100000000000FF3F00000000008000000000F2
:103020003A7474003A7474003A747400683000089A
:10303000000000206800000028010008D0300008CF
:1030400068000020B0080000440100081C000000D7
:1030500043000000F8FFFFFF0C0000000E0000001E
:103060000F0000002E00000000A24A040000000033
:103070000000000001020304060708090000000028
:103080000000000064000000E1070A001B000000CF
:103090000000000000000000000000000000000030
:1030A0006400000000000000000000000000F03F8D
:1030B00000000000010203040102030406070809DE
:1030C00002040608000000000000000000000000EC
:04000005080000ED02
:00000001FF
