:020000040800F2
:10000000E807002089010008910100089301000819
:100010009501000897010008990100080000000000
:100020000000000000000000000000009B0100082C
:100030009D010008000000009F010008F90500086C
:10004000A3010008A3010008A3010008A301000800
:10005000A3010008A3010008A3010008A3010008F0
:10006000A3010008A3010008A3010008A3010008E0
:10007000A3010008A3010008A3010008A3010008D0
:10008000A3010008A3010008A3010008A3010008C0
:10009000A3010008A3010008A3010008A3010008B0
:1000A000A3010008A3010008A3010008A3010008A0
:1000B000A3010008A301000800000000A30100083C
:1000C000A30100080000000000000000A3010008D8
:1000D00000000000A3010008A301000800000000C8
:1000E000A3010008A3010008A301000800F002F822
:1000F00000F03AF80AA090E8000C82448344AAF188
:100100000107DA4501D100F02FF8AFF2090EBAE885
:100110000F0013F0010F18BFFB1A43F0010318473B
:100120006C0800008C080000103A24BF78C878C121
:10013000FAD8520724BF30C830C144BF04680C60ED
:10014000704700000023002400250026103A28BF35
:1001500078C1FBD8520728BF30C148BF0B60704739
:100160001FB51FBD10B510BD00F031F81146FFF7E7
:10017000F7FF00F0CDFB00F04FF803B4FFF7F2FFFC
:1001800003BC00F057F800000948804709480047C1
:10019000FEE7FEE7FEE7FEE7FEE7FEE7FEE7FEE737
:1001A000FEE7FEE704480549054A064B7047000094
:1001B000F1070008ED000008E8010020E807002032
:1001C000E8030020E8030020704770477047754639
:1001D00000F02CF8AE4605006946534620F00700B3
:1001E000854618B020B5FFF7DDFFBDE820404FF091
:1001F00000064FF000074FF000084FF0000B21F011
:100200000701AC46ACE8C009ACE8C009ACE8C009DD
:10021000ACE8C0098D46704710B50446AFF30080C6
:100220002046BDE81040FFF7A8BF00000048704717
:100230008401002001491820ABBEFEE72600020021
:100240007047000010B504464FF40061024800F00A
:10025000AEF80248846110BD000801405000002043
:1002600010B50121042000F043F94FF40060074964
:100270000880032088701020C870054800F00AF834
:100280004FF40061024800F090F810BD1800002003
:10029000000801402DE9F04102460025002600201B
:1002A00000230024002791F803C00CF00F0591F8FB
:1002B00003C00CF0100CBCF1000F03D091F802C089
:1002C0004CEA050591F800C0BCF1000F31D014686C
:1002D00000202BE04FF0010C0CFA00F3B1F800C045
:1002E0000CEA03069E4220D183004FF00F0C0CFA5B
:1002F00003F7BC4305FA03FC4CEA040491F803C07D
:10030000BCF1280F06D14FF0010C0CFA00FCC2F82A
:1003100014C00AE091F803C0BCF1480F05D14FF0BA
:10032000010C0CFA00FCC2F810C0401C0828D1D304
:100330001460B1F800C0BCF1FF0F34DD5468002038
:100340002EE000F1080C4FF0010808FA0CF3B1F8A8
:1003500000C00CEA03069E4221D183004FF00F0C2F
:100360000CFA03F7BC4305FA03FC4CEA040491F8C9
:1003700003C0BCF1280F05D100F1080C08FA0CF8F5
:10038000C2F8148091F803C0BCF1480F07D100F106
:10039000080C4FF0010808FA0CF8C2F81080401C55
:1003A0000828CED35460BDE8F081416170470161F7
:1003B0007047000010B50121082000F099F80320D3
:1003C0000A49088088701020C8700948FFF762FF4A
:1003D0000121042000F08CF8C0200449088004208A
:1003E000C8700448FFF756FF10BD00001800002039
:1003F000000C01400008014010B54FF4407000F0BF
:100400005DF8FF20104908700020487088700120B6
:10041000C870084600F01AF825200B4908700F2014
:10042000487088700120C870084600F00FF8262038
:10043000054908701020487088700120C87008466F
:1004400000F004F810BD00001400002070B5002179
:1004500000230F22C47804B3154C246804F4E0642C
:10046000C4F5E064210AC1F10403CA40447804FAE7
:1004700003F184781440214309010E4C0678A155FC
:10048000047804F01F050124AC4005786D11AD001F
:1004900005F1E025C5F8004109E0047804F01F05E6
:1004A0000124AC40044D0678761145F8264070BD15
:1004B0000CED00E000E400E080E100E002490143CF
:1004C000024A1160704700000000FA050CED00E0E0
:1004D00029B1064AD2690243044BDA6104E0034AB7
:1004E000D2698243014BDA6170470000001002407C
:1004F00029B1064A92690243044B9A6104E0034A17
:1005000092698243014B9A617047000000100240DB
:1005100010B500F001F810BD0CB50020019000905E
:100520003348006840F480303149086000BF3048EB
:10053000006800F4003000900198401C0190009881
:1005400018B90198B0F5A06FF1D12948006800F4FE
:10055000003010B10120009001E0002000900098D0
:10056000012843D12348006840F010002149086069
:100570000846006820F0030008600846006840F064
:10058000020008601A4840681949486008464068F7
:1005900048600846406840F480604860084640680B
:1005A00020F47C1048600846406840F4E810486039
:1005B0000846006840F08070086000BF0C48006882
:1005C00000F000700028F9D00948406820F00300CE
:1005D000074948600846406840F00200486000BF94
:1005E0000348406800F00C000828F9D10CBD000059
:1005F00000100240002002402DE9F0414FF4FA645F
:10060000C825142602274C480068401C4A49086047
:1006100008460068B0F5FA6F01D30020086046482C
:10062000007800F0010048B90120444908710846EB
:10063000406918B108464069401E48613E4800685C
:100640001421B0FBF1F201FB120010BB01203B4969
:10065000C8700846006918B108460069401E086164
:100660003648806928B135488069401E3349886121
:1006700004E04FF400613248FFF797FE2F48006A0C
:1006800038B13048006828B12E480068401E2D4916
:1006900008600AE00A202B4908602848006A401ECA
:1006A000264908620520FFF7CDFD23480068C821D0
:1006B000B0FBF1F201FB120048B901201F4988701C
:1006C0000846C06818B10846C068401EC8601A488D
:1006D00000684FF4FA61B0FBF1F201FB120018BBA5
:1006E0000120164948700846806818B1084680689D
:1006F000401E88601148C06938B11048C069401E6A
:100700000E49C8613C20FFF79DFD0C48406A401C23
:100710000A494862084690F8240000F0010020B120
:1007200001210948FFF743FE03E001210648FFF7D6
:100730003EFEBDE8F08100002C00002050000020AB
:100740000008014030000020000C014070B51E4838
:1007500000684FF4FA62B0FBF2F1B1F1807F00D390
:100760001DE021F07F40401E4FF0E0225061501705
:100770000F22002807DA13071D0E144B00F00F0498
:10078000241F1D5503E013071C0E114B1C5400BF02
:1007900000204FF0E02290610720106100BF01218E
:1007A0002020FFF795FE4FF6FF700A49888047200A
:1007B00008800020C8804880074800F055F80121D3
:1007C000054800F045F870BD0000002018ED00E07D
:1007D00000E400E0440000200014004010B5FFF7E2
:1007E0000BFEFFF7B3FFFFF73BFDFFF7E3FD10BD87
:1007F00010B51348006840F0010011490860084630
:100800004068104908400E494860084600680E4993
:1008100008400B4908600846006820F48020086002
:100820000846406820F4FE0048604FF41F008860CE
:10083000FFF76EFE4FF000600449086010BD000035
:10084000001002400000FFF8FFFFF6FE08ED00E098
:1008500021B1028842F00102028004E002884FF6D2
:10086000FE731A4002807047002202881D4B984296
:100870000ED01D4B98420BD0B0F1804F08D01B4BCF
:10088000984205D01A4B984202D01A4B984204D194
:100890004FF68F731A404B881A43174B984207D074
:1008A000164B984204D04FF6FF431A40CB881A43A8
:1008B00002808B8883850B8803850A4B98420BD076
:1008C000094B984208D00E4B984205D00D4B9842E8
:1008D00002D00D4B984201D10B7A0386012383820B
:1008E00070470000002C014000340140000400402B
:1008F00000080040000C00400010004000140040C0
:1009000000400140004401400048014070477047EA
:10091000FFF764FF1FE01048007920B100200E4966
:10092000087100F01BF80C48C07820B100200A497B
:10093000C870FFF7EBFF0848807820B10020064917
:100940008870FFF7E4FF0448407820B10020024996
:10095000487000F005F8DEE7500000207047000006
:1009600010B5084890F8240000F0010020B90221D9
:100970000548FFF71CFD03E002210348FFF717FDC0
:1009800010BD000050000020000C0140AC09000820
:10099000000000203400000028010008E0090008E1
:1009A00034000020B40700004401000800A24A04FB
:1009B000000000000000000001020304060708090F
:1009C000000000000000000064000000E1070A00D1
:1009D0001B000000000000000000000000000000FC
:04000005080000ED02
:00000001FF
